{
  "abi": [
    {
      "inputs": [],
      "name": "DAI",
      "outputs": [
        {
          "internalType": "address",
          "name": "",
          "type": "address"
        }
      ],
      "stateMutability": "view",
      "type": "function"
    },
    {
      "inputs": [],
      "name": "USDC",
      "outputs": [
        {
          "internalType": "address",
          "name": "",
          "type": "address"
        }
      ],
      "stateMutability": "view",
      "type": "function"
    },
    {
      "inputs": [],
      "name": "getBalance",
      "outputs": [
        {
          "internalType": "uint256",
          "name": "",
          "type": "uint256"
        }
      ],
      "stateMutability": "view",
      "type": "function"
    }
  ],
  "bytecode": {
    "object": "0x6080604052600080546001600160a01b0319908116737a250d5630b4cf539739df2c5dacb4c659f2488d1790915560018054909116736b175474e89094c44da98b954eedeac495271d0f17905534801561005857600080fd5b50610175806100686000396000f3fe608060405234801561001057600080fd5b50600436106100415760003560e01c806312065fe01461004657806389a3027114610061578063e0bab4c414610094575b600080fd5b61004e6100af565b6040519081526020015b60405180910390f35b61007c73a0b86991c6218b36c1d19d4a2e9eb0ce3606eb4881565b6040516001600160a01b039091168152602001610058565b61007c736b175474e89094c44da98b954eedeac495271d0f81565b6001546040516370a0823160e01b815230600482015260009182916001600160a01b03909116906370a0823190602401602060405180830381865afa1580156100fc573d6000803e3d6000fd5b505050506040513d601f19601f820116820180604052508101906101209190610126565b92915050565b60006020828403121561013857600080fd5b505191905056fea26469706673582212203c18525d26c39e7737d6c69a6fd62cee65bbc6e7e0c921ea0f9bbbb432baa9a664736f6c63430008110033",
    "linkReferences": {}
  },
  "methodIdentifiers": {
    "DAI()": "e0bab4c4",
    "USDC()": "89a30271",
    "getBalance()": "12065fe0"
  },
  "id": 8
}