{
  "abi": [
    {
      "inputs": [],
      "name": "DAI",
      "outputs": [
        {
          "internalType": "address",
          "name": "",
          "type": "address"
        }
      ],
      "stateMutability": "view",
      "type": "function"
    },
    {
      "inputs": [],
      "name": "USDC",
      "outputs": [
        {
          "internalType": "address",
          "name": "",
          "type": "address"
        }
      ],
      "stateMutability": "view",
      "type": "function"
    },
    {
      "inputs": [
        {
          "internalType": "uint256",
          "name": "_amountIn",
          "type": "uint256"
        },
        {
          "internalType": "address[]",
          "name": "s_path",
          "type": "address[]"
        }
      ],
      "name": "getAmountOut",
      "outputs": [
        {
          "internalType": "uint256",
          "name": "",
          "type": "uint256"
        }
      ],
      "stateMutability": "nonpayable",
      "type": "function"
    },
    {
      "inputs": [],
      "name": "getBalance",
      "outputs": [
        {
          "internalType": "uint256",
          "name": "",
          "type": "uint256"
        }
      ],
      "stateMutability": "view",
      "type": "function"
    },
    {
      "inputs": [],
      "name": "getRouter",
      "outputs": [
        {
          "internalType": "address",
          "name": "",
          "type": "address"
        }
      ],
      "stateMutability": "view",
      "type": "function"
    },
    {
      "inputs": [
        {
          "internalType": "uint256",
          "name": "_amountOut",
          "type": "uint256"
        },
        {
          "internalType": "uint256",
          "name": "_amountInMax",
          "type": "uint256"
        },
        {
          "internalType": "address[]",
          "name": "_path",
          "type": "address[]"
        },
        {
          "internalType": "address",
          "name": "_to",
          "type": "address"
        },
        {
          "internalType": "uint256",
          "name": "_deadline",
          "type": "uint256"
        }
      ],
      "name": "swap",
      "outputs": [
        {
          "internalType": "uint256[]",
          "name": "",
          "type": "uint256[]"
        }
      ],
      "stateMutability": "nonpayable",
      "type": "function"
    }
  ],
  "bytecode": {
    "object": "0x6080604052600080546001600160a01b0319908116737a250d5630b4cf539739df2c5dacb4c659f2488d1790915560018054909116736b175474e89094c44da98b954eedeac495271d0f17905534801561005857600080fd5b5061050d806100686000396000f3fe608060405234801561001057600080fd5b50600436106100625760003560e01c806312065fe01461006757806389a302711461008157806390f11e84146100a5578063b0f479a1146101b2578063b8239ebb146101ba578063e0bab4c414610264575b600080fd5b61006f61026c565b60408051918252519081900360200190f35b6100896102ee565b604080516001600160a01b039092168252519081900360200190f35b610162600480360360a08110156100bb57600080fd5b8135916020810135918101906060810160408201356401000000008111156100e257600080fd5b8201836020820111156100f457600080fd5b8035906020019184602083028401116401000000008311171561011657600080fd5b919080806020026020016040519081016040528093929190818152602001838360200280828437600092019190915250929550506001600160a01b038335169350505060200135610306565b60408051602080825283518183015283519192839290830191858101910280838360005b8381101561019e578181015183820152602001610186565b505050509050019250505060405180910390f35b6100896104a8565b61006f600480360360408110156101d057600080fd5b813591908101906040810160208201356401000000008111156101f257600080fd5b82018360208201111561020457600080fd5b8035906020019184602083028401116401000000008311171561022657600080fd5b9190808060200260200160405190810160405280939291908181526020018383602002808284376000920191909152509295506104b7945050505050565b6100896104bf565b600154604080516370a0823160e01b8152306004820152905160009283926001600160a01b03909116916370a0823191602480820192602092909190829003018186803b1580156102bc57600080fd5b505afa1580156102d0573d6000803e3d6000fd5b505050506040513d60208110156102e657600080fd5b505191505090565b73a0b86991c6218b36c1d19d4a2e9eb0ce3606eb4881565b6060806000809054906101000a90046001600160a01b03166001600160a01b0316638803dbee88888888886040518663ffffffff1660e01b81526004018086815260200185815260200180602001846001600160a01b03166001600160a01b03168152602001838152602001828103825285818151815260200191508051906020019060200280838360005b838110156103aa578181015183820152602001610392565b505050509050019650505050505050600060405180830381600087803b1580156103d357600080fd5b505af11580156103e7573d6000803e3d6000fd5b505050506040513d6000823e601f3d908101601f19168201604052602081101561041057600080fd5b810190808051604051939291908464010000000082111561043057600080fd5b90830190602082018581111561044557600080fd5b825186602082028301116401000000008211171561046257600080fd5b82525081516020918201928201910280838360005b8381101561048f578181015183820152602001610477565b5050505090500160405250505090505095945050505050565b6000546001600160a01b031690565b600092915050565b736b175474e89094c44da98b954eedeac495271d0f8156fea264697066735822122020f2b0807948a7954f05884147d829edd463342906dab1f6561e623ee48ad23264736f6c63430006060033",
    "linkReferences": {}
  },
  "methodIdentifiers": {
    "DAI()": "e0bab4c4",
    "USDC()": "89a30271",
    "getAmountOut(uint256,address[])": "b8239ebb",
    "getBalance()": "12065fe0",
    "getRouter()": "b0f479a1",
    "swap(uint256,uint256,address[],address,uint256)": "90f11e84"
  },
  "id": 11
}