{
  "abi": [
    {
      "inputs": [],
      "name": "DAI",
      "outputs": [
        {
          "internalType": "address",
          "name": "",
          "type": "address"
        }
      ],
      "stateMutability": "view",
      "type": "function"
    },
    {
      "inputs": [],
      "name": "USDC",
      "outputs": [
        {
          "internalType": "address",
          "name": "",
          "type": "address"
        }
      ],
      "stateMutability": "view",
      "type": "function"
    },
    {
      "inputs": [
        {
          "internalType": "uint256",
          "name": "_amountIn",
          "type": "uint256"
        },
        {
          "internalType": "uint256",
          "name": "reserveIn",
          "type": "uint256"
        },
        {
          "internalType": "uint256",
          "name": "reserveOut",
          "type": "uint256"
        }
      ],
      "name": "getAmountOut",
      "outputs": [],
      "stateMutability": "nonpayable",
      "type": "function"
    },
    {
      "inputs": [],
      "name": "getBalance",
      "outputs": [
        {
          "internalType": "uint256",
          "name": "",
          "type": "uint256"
        }
      ],
      "stateMutability": "view",
      "type": "function"
    },
    {
      "inputs": [],
      "name": "getRouter",
      "outputs": [
        {
          "internalType": "address",
          "name": "",
          "type": "address"
        }
      ],
      "stateMutability": "view",
      "type": "function"
    }
  ],
  "bytecode": {
    "object": "0x6080604052600080546001600160a01b0319908116737a250d5630b4cf539739df2c5dacb4c659f2488d1790915560018054909116736b175474e89094c44da98b954eedeac495271d0f17905534801561005857600080fd5b506101d1806100686000396000f3fe608060405234801561001057600080fd5b50600436106100575760003560e01c8063054d50d41461005c57806312065fe01461008757806389a30271146100a1578063b0f479a1146100c5578063e0bab4c4146100cd575b600080fd5b6100856004803603606081101561007257600080fd5b50803590602081013590604001356100d5565b005b61008f6100da565b60408051918252519081900360200190f35b6100a961015c565b604080516001600160a01b039092168252519081900360200190f35b6100a9610174565b6100a9610183565b505050565b600154604080516370a0823160e01b8152306004820152905160009283926001600160a01b03909116916370a0823191602480820192602092909190829003018186803b15801561012a57600080fd5b505afa15801561013e573d6000803e3d6000fd5b505050506040513d602081101561015457600080fd5b505191505090565b73a0b86991c6218b36c1d19d4a2e9eb0ce3606eb4881565b6000546001600160a01b031690565b736b175474e89094c44da98b954eedeac495271d0f8156fea26469706673582212200999e037751925653c1753b91d35848bb8f6a548aeb095a56e70784c7a10cb1a64736f6c63430006060033",
    "linkReferences": {}
  },
  "methodIdentifiers": {
    "DAI()": "e0bab4c4",
    "USDC()": "89a30271",
    "getAmountOut(uint256,uint256,uint256)": "054d50d4",
    "getBalance()": "12065fe0",
    "getRouter()": "b0f479a1"
  },
  "id": 11
}