{
  "abi": [
    {
      "anonymous": false,
      "inputs": [
        {
          "indexed": false,
          "internalType": "uint256[]",
          "name": "amounts",
          "type": "uint256[]"
        }
      ],
      "name": "_Swap",
      "type": "event"
    },
    {
      "inputs": [],
      "name": "DAI",
      "outputs": [
        {
          "internalType": "address",
          "name": "",
          "type": "address"
        }
      ],
      "stateMutability": "view",
      "type": "function"
    },
    {
      "inputs": [],
      "name": "USDC",
      "outputs": [
        {
          "internalType": "address",
          "name": "",
          "type": "address"
        }
      ],
      "stateMutability": "view",
      "type": "function"
    },
    {
      "inputs": [
        {
          "internalType": "uint256",
          "name": "_amountIn",
          "type": "uint256"
        },
        {
          "internalType": "address[]",
          "name": "s_path",
          "type": "address[]"
        }
      ],
      "name": "getAmountOut",
      "outputs": [
        {
          "internalType": "uint256",
          "name": "",
          "type": "uint256"
        }
      ],
      "stateMutability": "nonpayable",
      "type": "function"
    },
    {
      "inputs": [],
      "name": "getBalanceDai",
      "outputs": [
        {
          "internalType": "uint256",
          "name": "",
          "type": "uint256"
        }
      ],
      "stateMutability": "view",
      "type": "function"
    },
    {
      "inputs": [],
      "name": "getBalanceUsdc",
      "outputs": [
        {
          "internalType": "uint256",
          "name": "",
          "type": "uint256"
        }
      ],
      "stateMutability": "view",
      "type": "function"
    },
    {
      "inputs": [],
      "name": "getRouter",
      "outputs": [
        {
          "internalType": "address",
          "name": "",
          "type": "address"
        }
      ],
      "stateMutability": "view",
      "type": "function"
    },
    {
      "inputs": [
        {
          "internalType": "uint256",
          "name": "_amountIn",
          "type": "uint256"
        },
        {
          "internalType": "uint256",
          "name": "_amountOutMin",
          "type": "uint256"
        },
        {
          "internalType": "address[]",
          "name": "_path",
          "type": "address[]"
        },
        {
          "internalType": "address",
          "name": "_to",
          "type": "address"
        },
        {
          "internalType": "uint256",
          "name": "_deadline",
          "type": "uint256"
        }
      ],
      "name": "swap",
      "outputs": [
        {
          "internalType": "uint256[]",
          "name": "",
          "type": "uint256[]"
        }
      ],
      "stateMutability": "nonpayable",
      "type": "function"
    }
  ],
  "bytecode": {
    "object": "0x6080604052600080546001600160a01b0319908116737a250d5630b4cf539739df2c5dacb4c659f2488d17909155600180548216736b175474e89094c44da98b954eedeac495271d0f1790556002805490911673a0b86991c6218b36c1d19d4a2e9eb0ce3606eb4817905534801561007657600080fd5b506105f5806100866000396000f3fe608060405234801561001057600080fd5b506004361061007d5760003560e01c8063b0f479a11161005b578063b0f479a1146101cd578063b8239ebb146101d5578063c08237311461027f578063e0bab4c4146102875761007d565b80634ba9837a1461008257806389a302711461009c57806390f11e84146100c0575b600080fd5b61008a61028f565b60408051918252519081900360200190f35b6100a4610311565b604080516001600160a01b039092168252519081900360200190f35b61017d600480360360a08110156100d657600080fd5b8135916020810135918101906060810160408201356401000000008111156100fd57600080fd5b82018360208201111561010f57600080fd5b8035906020019184602083028401116401000000008311171561013157600080fd5b919080806020026020016040519081016040528093929190818152602001838360200280828437600092019190915250929550506001600160a01b038335169350505060200135610329565b60408051602080825283518183015283519192839290830191858101910280838360005b838110156101b95781810151838201526020016101a1565b505050509050019250505060405180910390f35b6100a4610540565b61008a600480360360408110156101eb57600080fd5b8135919081019060408101602082013564010000000081111561020d57600080fd5b82018360208201111561021f57600080fd5b8035906020019184602083028401116401000000008311171561024157600080fd5b91908080602002602001604051908101604052809392919081815260200183836020028082843760009201919091525092955061054f945050505050565b61008a610557565b6100a46105a7565b600254604080516370a0823160e01b8152306004820152905160009283926001600160a01b03909116916370a0823191602480820192602092909190829003018186803b1580156102df57600080fd5b505afa1580156102f3573d6000803e3d6000fd5b505050506040513d602081101561030957600080fd5b505191505090565b73a0b86991c6218b36c1d19d4a2e9eb0ce3606eb4881565b6060806000809054906101000a90046001600160a01b03166001600160a01b03166338ed173988888888886040518663ffffffff1660e01b81526004018086815260200185815260200180602001846001600160a01b03166001600160a01b03168152602001838152602001828103825285818151815260200191508051906020019060200280838360005b838110156103cd5781810151838201526020016103b5565b505050509050019650505050505050600060405180830381600087803b1580156103f657600080fd5b505af115801561040a573d6000803e3d6000fd5b505050506040513d6000823e601f3d908101601f19168201604052602081101561043357600080fd5b810190808051604051939291908464010000000082111561045357600080fd5b90830190602082018581111561046857600080fd5b825186602082028301116401000000008211171561048557600080fd5b82525081516020918201928201910280838360005b838110156104b257818101518382015260200161049a565b5050505090500160405250505090507ff418019dfbe64c746fd6c175468f82f58e9e5ade271fc08ce7312e7109a2e770816040518080602001828103825283818151815260200191508051906020019060200280838360005b8381101561052357818101518382015260200161050b565b505050509050019250505060405180910390a15095945050505050565b6000546001600160a01b031690565b600092915050565b600154604080516370a0823160e01b8152306004820152905160009283926001600160a01b03909116916370a0823191602480820192602092909190829003018186803b1580156102df57600080fd5b736b175474e89094c44da98b954eedeac495271d0f8156fea2646970667358221220089f13f34fd279c1db8100fd82ff0b8095054c86a325dd28ceb5fdf4d4cd8bb864736f6c63430006060033",
    "linkReferences": {}
  },
  "methodIdentifiers": {
    "DAI()": "e0bab4c4",
    "USDC()": "89a30271",
    "getAmountOut(uint256,address[])": "b8239ebb",
    "getBalanceDai()": "c0823731",
    "getBalanceUsdc()": "4ba9837a",
    "getRouter()": "b0f479a1",
    "swap(uint256,uint256,address[],address,uint256)": "90f11e84"
  },
  "id": 11
}