{
  "abi": [
    {
      "inputs": [],
      "name": "DAI",
      "outputs": [
        {
          "internalType": "address",
          "name": "",
          "type": "address"
        }
      ],
      "stateMutability": "view",
      "type": "function"
    },
    {
      "inputs": [],
      "name": "USDC",
      "outputs": [
        {
          "internalType": "address",
          "name": "",
          "type": "address"
        }
      ],
      "stateMutability": "view",
      "type": "function"
    },
    {
      "inputs": [
        {
          "internalType": "uint256",
          "name": "_amountIn",
          "type": "uint256"
        },
        {
          "internalType": "address[]",
          "name": "s_path",
          "type": "address[]"
        }
      ],
      "name": "getAmountOut",
      "outputs": [
        {
          "internalType": "uint256",
          "name": "",
          "type": "uint256"
        }
      ],
      "stateMutability": "nonpayable",
      "type": "function"
    },
    {
      "inputs": [],
      "name": "getBalance",
      "outputs": [
        {
          "internalType": "uint256",
          "name": "",
          "type": "uint256"
        }
      ],
      "stateMutability": "view",
      "type": "function"
    },
    {
      "inputs": [],
      "name": "getRouter",
      "outputs": [
        {
          "internalType": "address",
          "name": "",
          "type": "address"
        }
      ],
      "stateMutability": "view",
      "type": "function"
    },
    {
      "inputs": [
        {
          "internalType": "uint256",
          "name": "_amountOut",
          "type": "uint256"
        },
        {
          "internalType": "uint256",
          "name": "_amountInMax",
          "type": "uint256"
        },
        {
          "internalType": "address[]",
          "name": "_path",
          "type": "address[]"
        },
        {
          "internalType": "address",
          "name": "_to",
          "type": "address"
        },
        {
          "internalType": "uint256",
          "name": "_deadline",
          "type": "uint256"
        }
      ],
      "name": "swap",
      "outputs": [],
      "stateMutability": "nonpayable",
      "type": "function"
    }
  ],
  "bytecode": {
    "object": "0x6080604052600080546001600160a01b0319908116737a250d5630b4cf539739df2c5dacb4c659f2488d1790915560018054909116736b175474e89094c44da98b954eedeac495271d0f17905534801561005857600080fd5b506104bc806100686000396000f3fe608060405234801561001057600080fd5b50600436106100625760003560e01c806312065fe01461006757806389a302711461008157806390f11e84146100a5578063b0f479a114610164578063b8239ebb1461016c578063e0bab4c414610216575b600080fd5b61006f61021e565b60408051918252519081900360200190f35b6100896102a0565b604080516001600160a01b039092168252519081900360200190f35b610162600480360360a08110156100bb57600080fd5b8135916020810135918101906060810160408201356401000000008111156100e257600080fd5b8201836020820111156100f457600080fd5b8035906020019184602083028401116401000000008311171561011657600080fd5b919080806020026020016040519081016040528093929190818152602001838360200280828437600092019190915250929550506001600160a01b0383351693505050602001356102b8565b005b610089610457565b61006f6004803603604081101561018257600080fd5b813591908101906040810160208201356401000000008111156101a457600080fd5b8201836020820111156101b657600080fd5b803590602001918460208302840111640100000000831117156101d857600080fd5b919080806020026020016040519081016040528093929190818152602001838360200280828437600092019190915250929550610466945050505050565b61008961046e565b600154604080516370a0823160e01b8152306004820152905160009283926001600160a01b03909116916370a0823191602480820192602092909190829003018186803b15801561026e57600080fd5b505afa158015610282573d6000803e3d6000fd5b505050506040513d602081101561029857600080fd5b505191505090565b73a0b86991c6218b36c1d19d4a2e9eb0ce3606eb4881565b60606000809054906101000a90046001600160a01b03166001600160a01b0316638803dbee87878787876040518663ffffffff1660e01b81526004018086815260200185815260200180602001846001600160a01b03166001600160a01b03168152602001838152602001828103825285818151815260200191508051906020019060200280838360005b8381101561035b578181015183820152602001610343565b505050509050019650505050505050600060405180830381600087803b15801561038457600080fd5b505af1158015610398573d6000803e3d6000fd5b505050506040513d6000823e601f3d908101601f1916820160405260208110156103c157600080fd5b81019080805160405193929190846401000000008211156103e157600080fd5b9083019060208201858111156103f657600080fd5b825186602082028301116401000000008211171561041357600080fd5b82525081516020918201928201910280838360005b83811015610440578181015183820152602001610428565b505050509050016040525050509050505050505050565b6000546001600160a01b031690565b600092915050565b736b175474e89094c44da98b954eedeac495271d0f8156fea2646970667358221220be748cf055ba33877179afe6317a0f6738dbc87d80a2ebce23641c495fe6e93564736f6c63430006060033",
    "linkReferences": {}
  },
  "methodIdentifiers": {
    "DAI()": "e0bab4c4",
    "USDC()": "89a30271",
    "getAmountOut(uint256,address[])": "b8239ebb",
    "getBalance()": "12065fe0",
    "getRouter()": "b0f479a1",
    "swap(uint256,uint256,address[],address,uint256)": "90f11e84"
  },
  "id": 11
}