{
  "abi": [
    {
      "anonymous": false,
      "inputs": [
        {
          "indexed": false,
          "internalType": "uint256[]",
          "name": "amounts",
          "type": "uint256[]"
        }
      ],
      "name": "_Swap",
      "type": "event"
    },
    {
      "inputs": [],
      "name": "DAI",
      "outputs": [
        {
          "internalType": "address",
          "name": "",
          "type": "address"
        }
      ],
      "stateMutability": "view",
      "type": "function"
    },
    {
      "inputs": [],
      "name": "USDC",
      "outputs": [
        {
          "internalType": "address",
          "name": "",
          "type": "address"
        }
      ],
      "stateMutability": "view",
      "type": "function"
    },
    {
      "inputs": [],
      "name": "UniswapRouter2",
      "outputs": [
        {
          "internalType": "address",
          "name": "",
          "type": "address"
        }
      ],
      "stateMutability": "view",
      "type": "function"
    },
    {
      "inputs": [
        {
          "internalType": "uint256",
          "name": "_amountIn",
          "type": "uint256"
        },
        {
          "internalType": "address[]",
          "name": "s_path",
          "type": "address[]"
        }
      ],
      "name": "getAmountOut",
      "outputs": [
        {
          "internalType": "uint256",
          "name": "",
          "type": "uint256"
        }
      ],
      "stateMutability": "nonpayable",
      "type": "function"
    },
    {
      "inputs": [],
      "name": "getBalanceDai",
      "outputs": [
        {
          "internalType": "uint256",
          "name": "",
          "type": "uint256"
        }
      ],
      "stateMutability": "view",
      "type": "function"
    },
    {
      "inputs": [],
      "name": "getBalanceUsdc",
      "outputs": [
        {
          "internalType": "uint256",
          "name": "",
          "type": "uint256"
        }
      ],
      "stateMutability": "view",
      "type": "function"
    },
    {
      "inputs": [],
      "name": "getRouter",
      "outputs": [
        {
          "internalType": "address",
          "name": "",
          "type": "address"
        }
      ],
      "stateMutability": "view",
      "type": "function"
    },
    {
      "inputs": [
        {
          "internalType": "uint256",
          "name": "_amountIn",
          "type": "uint256"
        },
        {
          "internalType": "uint256",
          "name": "_amountOutMin",
          "type": "uint256"
        },
        {
          "internalType": "address[]",
          "name": "_path",
          "type": "address[]"
        },
        {
          "internalType": "address",
          "name": "_to",
          "type": "address"
        },
        {
          "internalType": "uint256",
          "name": "_deadline",
          "type": "uint256"
        }
      ],
      "name": "swapUsdcToDai",
      "outputs": [
        {
          "internalType": "uint256[]",
          "name": "",
          "type": "uint256[]"
        }
      ],
      "stateMutability": "nonpayable",
      "type": "function"
    }
  ],
  "bytecode": {
    "object": "0x6080604052600080546001600160a01b0319908116737a250d5630b4cf539739df2c5dacb4c659f2488d17909155600180548216736b175474e89094c44da98b954eedeac495271d0f1790556002805490911673a0b86991c6218b36c1d19d4a2e9eb0ce3606eb4817905534801561007657600080fd5b5061069f806100866000396000f3fe608060405234801561001057600080fd5b50600436106100885760003560e01c8063b0f479a11161005b578063b0f479a1146101e0578063b8239ebb146101e8578063c082373114610292578063e0bab4c41461029a57610088565b8063271fd79f1461008d5780634ba9837a1461019a57806389a30271146101b457806392b58c52146101d8575b600080fd5b61014a600480360360a08110156100a357600080fd5b8135916020810135918101906060810160408201356401000000008111156100ca57600080fd5b8201836020820111156100dc57600080fd5b803590602001918460208302840111640100000000831117156100fe57600080fd5b919080806020026020016040519081016040528093929190818152602001838360200280828437600092019190915250929550506001600160a01b0383351693505050602001356102a2565b60408051602080825283518183015283519192839290830191858101910280838360005b8381101561018657818101518382015260200161016e565b505050509050019250505060405180910390f35b6101a2610538565b60408051918252519081900360200190f35b6101bc6105ba565b604080516001600160a01b039092168252519081900360200190f35b6101bc6105d2565b6101bc6105ea565b6101a2600480360360408110156101fe57600080fd5b8135919081019060408101602082013564010000000081111561022057600080fd5b82018360208201111561023257600080fd5b8035906020019184602083028401116401000000008311171561025457600080fd5b9190808060200260200160405190810160405280939291908181526020018383602002808284376000920191909152509295506105f9945050505050565b6101a2610601565b6101bc610651565b6002546040805163095ea7b360e01b8152737a250d5630b4cf539739df2c5dacb4c659f2488d60048201526024810188905290516060926001600160a01b03169163095ea7b39160448083019260209291908290030181600087803b15801561030a57600080fd5b505af115801561031e573d6000803e3d6000fd5b505050506040513d602081101561033457600080fd5b5050600080546040516338ed173960e01b815260048101898152602482018990526001600160a01b0387811660648401526084830187905260a060448401908152895160a4850152895160609692909516946338ed1739948d948d948d948d948d94919260c49092019160208881019202908190849084905b838110156103c55781810151838201526020016103ad565b505050509050019650505050505050600060405180830381600087803b1580156103ee57600080fd5b505af1158015610402573d6000803e3d6000fd5b505050506040513d6000823e601f3d908101601f19168201604052602081101561042b57600080fd5b810190808051604051939291908464010000000082111561044b57600080fd5b90830190602082018581111561046057600080fd5b825186602082028301116401000000008211171561047d57600080fd5b82525081516020918201928201910280838360005b838110156104aa578181015183820152602001610492565b5050505090500160405250505090507ff418019dfbe64c746fd6c175468f82f58e9e5ade271fc08ce7312e7109a2e770816040518080602001828103825283818151815260200191508051906020019060200280838360005b8381101561051b578181015183820152602001610503565b505050509050019250505060405180910390a19695505050505050565b600254604080516370a0823160e01b8152306004820152905160009283926001600160a01b03909116916370a0823191602480820192602092909190829003018186803b15801561058857600080fd5b505afa15801561059c573d6000803e3d6000fd5b505050506040513d60208110156105b257600080fd5b505191505090565b73a0b86991c6218b36c1d19d4a2e9eb0ce3606eb4881565b737a250d5630b4cf539739df2c5dacb4c659f2488d81565b6000546001600160a01b031690565b600092915050565b600154604080516370a0823160e01b8152306004820152905160009283926001600160a01b03909116916370a0823191602480820192602092909190829003018186803b15801561058857600080fd5b736b175474e89094c44da98b954eedeac495271d0f8156fea26469706673582212207ca1140c8213dc272c54c99c0a1faa346ba4e3f1a88514821051a1ab2512c59264736f6c63430006060033",
    "linkReferences": {}
  },
  "methodIdentifiers": {
    "DAI()": "e0bab4c4",
    "USDC()": "89a30271",
    "UniswapRouter2()": "92b58c52",
    "getAmountOut(uint256,address[])": "b8239ebb",
    "getBalanceDai()": "c0823731",
    "getBalanceUsdc()": "4ba9837a",
    "getRouter()": "b0f479a1",
    "swapUsdcToDai(uint256,uint256,address[],address,uint256)": "271fd79f"
  },
  "id": 11
}